{
  "address": "0x1328254030F8fB2d35DC3C9c171643fAf5B67389",
  "abi": [
    {
      "inputs": [
        {
          "internalType": "address",
          "name": "_coreControllerImplementation",
          "type": "address"
        },
        {
          "internalType": "address",
          "name": "_sigmaControllerImplementation",
          "type": "address"
        },
        {
          "internalType": "address",
          "name": "_coreIndexPoolImplementation",
          "type": "address"
        },
        {
          "internalType": "address",
          "name": "_sigmaPoolImplementation",
          "type": "address"
        },
        {
          "internalType": "address",
          "name": "_polygonRecipient",
          "type": "address"
        }
      ],
      "stateMutability": "nonpayable",
      "type": "constructor"
    },
    {
      "inputs": [
        {
          "internalType": "address",
          "name": "account",
          "type": "address"
        }
      ],
      "name": "balanceOf",
      "outputs": [
        {
          "internalType": "uint256",
          "name": "bal",
          "type": "uint256"
        }
      ],
      "stateMutability": "nonpayable",
      "type": "function"
    },
    {
      "inputs": [],
      "name": "cc10",
      "outputs": [],
      "stateMutability": "nonpayable",
      "type": "function"
    },
    {
      "inputs": [],
      "name": "cc10Seller",
      "outputs": [],
      "stateMutability": "nonpayable",
      "type": "function"
    },
    {
      "inputs": [],
      "name": "defi5",
      "outputs": [],
      "stateMutability": "nonpayable",
      "type": "function"
    },
    {
      "inputs": [],
      "name": "drainAndRepair",
      "outputs": [],
      "stateMutability": "nonpayable",
      "type": "function"
    },
    {
      "inputs": [],
      "name": "fff",
      "outputs": [],
      "stateMutability": "nonpayable",
      "type": "function"
    },
    {
      "inputs": [
        {
          "internalType": "address",
          "name": "to",
          "type": "address"
        },
        {
          "internalType": "uint256",
          "name": "amount",
          "type": "uint256"
        }
      ],
      "name": "transfer",
      "outputs": [
        {
          "internalType": "bool",
          "name": "",
          "type": "bool"
        }
      ],
      "stateMutability": "nonpayable",
      "type": "function"
    },
    {
      "inputs": [
        {
          "internalType": "address",
          "name": "from",
          "type": "address"
        },
        {
          "internalType": "address",
          "name": "to",
          "type": "address"
        },
        {
          "internalType": "uint256",
          "name": "amount",
          "type": "uint256"
        }
      ],
      "name": "transferFrom",
      "outputs": [
        {
          "internalType": "bool",
          "name": "",
          "type": "bool"
        }
      ],
      "stateMutability": "view",
      "type": "function"
    }
  ],
  "transactionHash": "0xeb7efeaa71a45d052015f879e2f79564139a5eb84e249188a885d6f84b0bd265",
  "args": [
    "0x78b4f45B4A2Afa333C7Be1dbc7F2c9F056615327",
    "0x4561784841DE5335922a9ad3E44aba69a162bA7A",
    "0x669693A42B58E87b9e568bA2C6AdD607eb298d95",
    "0x7B3B2B39CbdBddaDC13D8559D82c054b9C2fd5f3",
    "0xa7204780ED47146a0e626D533e5fc14a5BeDA0f0"
  ],
  "solcInputHash": "49f5e5766fe061a376b15bf0e33acf4b",
  "bytecode": "0x6101606040523480156200001257600080fd5b5060405162001e5b38038062001e5b833981810160405260a08110156200003857600080fd5b508051602082015160408301516060808501516080909501516001600160601b031985831b81166101205284831b81166101405283831b811660c0529186901b9091166101005292939192909190620000b17f7ca83b20f9ebcf7361e9aa92ccaf4288e58f283ef8643d48af11fb81be1fc9e4620000dc565b6001600160601b0319606091821b811660e05230821b60a05291901b1660805250620002cc92505050565b60008073d23dedc599bd56767e42d48484d6ca96ab01c1156001600160a01b031663d083bc86846040518263ffffffff1660e01b81526004018082815260200191505060206040518083038186803b1580156200013857600080fd5b505afa1580156200014d573d6000803e3d6000fd5b505050506040513d60208110156200016457600080fd5b505160405190915060009081906001600160a01b0384169082818181855afa9150503d8060008114620001b4576040519150601f19603f3d011682016040523d82523d6000602084013e620001b9565b606091505b50915091508181906200024d5760405162461bcd60e51b81526004018080602001828103825283818151815260200191508051906020019080838360005b8381101562000211578181015183820152602001620001f7565b50505050905090810190601f1680156200023f5780820380516001836020036101000a031916815260200191505b509250505060405180910390fd5b508080602001905160208110156200026457600080fd5b505193506001600160a01b038416620002c4576040805162461bcd60e51b815260206004820152601760248201527f4552525f4e554c4c5f494d504c454d454e544154494f4e000000000000000000604482015290519081900360640190fd5b505050919050565b60805160601c60a05160601c60c05160601c60e05160601c6101005160601c6101205160601c6101405160601c611af96200036260003980610e32525080610d855250806104ba52806106c35280610cd8525080610c1f525080610b66525080610167528061034152806103c452806104f352806106f1528061079f5250806113265280611442528061155f5250611af96000f3fe608060405234801561001057600080fd5b50600436106100885760003560e01c8063976eb2681161005b578063976eb26814610121578063a9059cbb14610129578063df7b6a1814610155578063fa9143121461015d57610088565b80630b56dd631461008d57806323b872dd146100975780635fb4ed2a146100e157806370a08231146100e9575b600080fd5b610095610165565b005b6100cd600480360360608110156100ad57600080fd5b506001600160a01b038135811691602081013590911690604001356102c4565b604080519115158252519081900360200190f35b6100956103c2565b61010f600480360360208110156100ff57600080fd5b50356001600160a01b0316610478565b60408051918252519081900360200190f35b6100956104f1565b6100cd6004803603604081101561013f57600080fd5b506001600160a01b038135169060200135610672565b6100956106ef565b610095610788565b7f000000000000000000000000000000000000000000000000000000000000000073fa6de2697d59e88ed7fc4dfe5a33dac43565ea41336001600160a01b0383161480156101bb5750306001600160a01b038216145b6101c457600080fd5b6101e1736b3595068778dd592e39a122f4f5a5cf09c90fe2610f39565b6101fe731f9840a85d5af5bf1d1762f925bdaddc4201f984610f39565b61021b737fc66500c84a76ad7e9c93437bfc5ac33e2ddae9610f39565b61023873d533a949740bb3306d119cc777fa900ba034cd52610f39565b61025573c00e94cb662c3520282e6f5717214004a7f26888610f39565b610272739f8f72aa9304c8b593d555f12ef6589cc3a579a2610f39565b61028f73c011a73ee8576fb46f5e1c5751ca3b9fe0af2a6f610f39565b6102ac73c02aaa39b223fe8d0a0e5c4f27ead9083c756cc2610fdf565b7378a3ef33cf033381feb43ba4212f2af5a5a0a2ea80ff5b60003073fa6de2697d59e88ed7fc4dfe5a33dac43565ea4114806102fb5750307317ac188e09a7890a1844e5e65471fe8b0ccfadf3145b8061031957503073abafa52d3d5a2c18a4c1ae24480d22b831fc0413145b80156103385750337340ec5b33f54e0e8a33a975908c5ba1c14e5bbbdf145b801561037557507f00000000000000000000000000000000000000000000000000000000000000006001600160a01b0316846001600160a01b0316145b801561039d57506001600160a01b0383167340ec5b33f54e0e8a33a975908c5ba1c14e5bbbdf145b80156103af57506001600160801b0382145b6103b857600080fd5b5060019392505050565b7f000000000000000000000000000000000000000000000000000000000000000073abafa52d3d5a2c18a4c1ae24480d22b831fc0413336001600160a01b0383161480156104185750306001600160a01b038216145b61042157600080fd5b61043e73c02aaa39b223fe8d0a0e5c4f27ead9083c756cc2610f39565b61045b732260fac5e5542a773aa44fbcfedf7c193bc2c599610f39565b61028f73126c121f99e1e211df2e5f8de2d96fa36647c855610f39565b60003373abafa52d3d5a2c18a4c1ae24480d22b831fc04131480156104b057503073126c121f99e1e211df2e5f8de2d96fa36647c855145b156104de576104de7f000000000000000000000000000000000000000000000000000000000000000061124b565b60006104e98361126f565b549392505050565b7f00000000000000000000000000000000000000000000000000000000000000007317ac188e09a7890a1844e5e65471fe8b0ccfadf3336001600160a01b0383161480156105475750306001600160a01b038216145b61055057600080fd5b61056d73d26114cd6ee289accf82350c8d8487fedb8a0c07610f39565b61058a7304fa0d235c4abf4bcf4787af4cf447de572ef828610f39565b6105a7730d8775f648430679a709e98d2b0cb6250d2887ef610f39565b6105c473c00e94cb662c3520282e6f5717214004a7f26888610f39565b6105e1736b3595068778dd592e39a122f4f5a5cf09c90fe2610f39565b6105fe73d533a949740bb3306d119cc777fa900ba034cd52610f39565b61061b739f8f72aa9304c8b593d555f12ef6589cc3a579a2610f39565b61063873c011a73ee8576fb46f5e1c5751ca3b9fe0af2a6f610f39565b610655730bc529c00c6401aef6d220be8c6ea1667f6ad93e610f39565b61028f731f9840a85d5af5bf1d1762f925bdaddc4201f984610f39565b600073abafa52d3d5a2c18a4c1ae24480d22b831fc041373126c121f99e1e211df2e5f8de2d96fa36647c85533821480156106b55750306001600160a01b038216145b6106be57600080fd5b6106e77f000000000000000000000000000000000000000000000000000000000000000061124b565b505092915050565b7f000000000000000000000000000000000000000000000000000000000000000073e487f6e45d292bf8d9b883d007d93714f4bfe148336001600160a01b0383161480156107455750306001600160a01b038216145b61074e57600080fd5b61076b73d26114cd6ee289accf82350c8d8487fedb8a0c07610f39565b6102ac73e41d2489571d322189246dafa5ebde1f4699f498610f39565b7378a3ef33cf033381feb43ba4212f2af5a5a0a2ea7f000000000000000000000000000000000000000000000000000000000000000033821480156107d55750306001600160a01b038216145b6107de57600080fd5b6040805163c3242d6b60e01b81527fe4105e36f4402bad908f77146a54b96b1aae362be2a9d940c0e19537431e1efb60048201523060248201529051733d4860d4b7952a3cad3accfada61463f15fc0d549163c3242d6b91604480830192600092919082900301818387803b15801561085657600080fd5b505af115801561086a573d6000803e3d6000fd5b50506040805163c3242d6b60e01b81527f7ca83b20f9ebcf7361e9aa92ccaf4288e58f283ef8643d48af11fb81be1fc9e460048201523060248201529051733d4860d4b7952a3cad3accfada61463f15fc0d54935063c3242d6b9250604480830192600092919082900301818387803b1580156108e657600080fd5b505af11580156108fa573d6000803e3d6000fd5b50506040805163c3242d6b60e01b81527f42fdd905bf1f3fac3b475cdca7cc127db3a757ae179f57c9da3b4787f5f5820660048201523060248201529051733d4860d4b7952a3cad3accfada61463f15fc0d54935063c3242d6b9250604480830192600092919082900301818387803b15801561097657600080fd5b505af115801561098a573d6000803e3d6000fd5b505050506109966112f4565b73abafa52d3d5a2c18a4c1ae24480d22b831fc04136001600160a01b0316635fb4ed2a6040518163ffffffff1660e01b8152600401600060405180830381600087803b1580156109e557600080fd5b505af11580156109f9573d6000803e3d6000fd5b5050505073fa6de2697d59e88ed7fc4dfe5a33dac43565ea416001600160a01b0316630b56dd636040518163ffffffff1660e01b8152600401600060405180830381600087803b158015610a4c57600080fd5b505af1158015610a60573d6000803e3d6000fd5b505050507317ac188e09a7890a1844e5e65471fe8b0ccfadf36001600160a01b031663976eb2686040518163ffffffff1660e01b8152600401600060405180830381600087803b158015610ab357600080fd5b505af1158015610ac7573d6000803e3d6000fd5b5050505073e487f6e45d292bf8d9b883d007d93714f4bfe1486001600160a01b031663df7b6a186040518163ffffffff1660e01b8152600401600060405180830381600087803b158015610b1a57600080fd5b505af1158015610b2e573d6000803e3d6000fd5b50506040805163c3242d6b60e01b81527fe4105e36f4402bad908f77146a54b96b1aae362be2a9d940c0e19537431e1efb60048201527f00000000000000000000000000000000000000000000000000000000000000006001600160a01b031660248201529051733d4860d4b7952a3cad3accfada61463f15fc0d54935063c3242d6b9250604480830192600092919082900301818387803b158015610bd357600080fd5b505af1158015610be7573d6000803e3d6000fd5b50506040805163c3242d6b60e01b81527f7ca83b20f9ebcf7361e9aa92ccaf4288e58f283ef8643d48af11fb81be1fc9e460048201527f00000000000000000000000000000000000000000000000000000000000000006001600160a01b031660248201529051733d4860d4b7952a3cad3accfada61463f15fc0d54935063c3242d6b9250604480830192600092919082900301818387803b158015610c8c57600080fd5b505af1158015610ca0573d6000803e3d6000fd5b50506040805163c3242d6b60e01b81527f42fdd905bf1f3fac3b475cdca7cc127db3a757ae179f57c9da3b4787f5f5820660048201527f00000000000000000000000000000000000000000000000000000000000000006001600160a01b031660248201529051733d4860d4b7952a3cad3accfada61463f15fc0d54935063c3242d6b9250604480830192600092919082900301818387803b158015610d4557600080fd5b505af1158015610d59573d6000803e3d6000fd5b505060408051633409d1e160e11b815273f00a38376c8668fc1f3cd3daeef42e0e44a7fcdb60048201527f00000000000000000000000000000000000000000000000000000000000000006001600160a01b031660248201529051733d4860d4b7952a3cad3accfada61463f15fc0d549350636813a3c29250604480830192600092919082900301818387803b158015610df257600080fd5b505af1158015610e06573d6000803e3d6000fd5b505060408051633409d1e160e11b8152735b470a8c134d397466a1a603678dadda678cbc2960048201527f00000000000000000000000000000000000000000000000000000000000000006001600160a01b031660248201529051733d4860d4b7952a3cad3accfada61463f15fc0d549350636813a3c29250604480830192600092919082900301818387803b158015610e9f57600080fd5b505af1158015610eb3573d6000803e3d6000fd5b50506040805163f2fde38b60e01b81527378a3ef33cf033381feb43ba4212f2af5a5a0a2ea60048201529051733d4860d4b7952a3cad3accfada61463f15fc0d54935063f2fde38b9250602480830192600092919082900301818387803b158015610f1d57600080fd5b505af1158015610f31573d6000803e3d6000fd5b505050505050565b6000816001600160a01b03166370a08231306040518263ffffffff1660e01b815260040180826001600160a01b0316815260200191505060206040518083038186803b158015610f8857600080fd5b505afa158015610f9c573d6000803e3d6000fd5b505050506040513d6020811015610fb257600080fd5b505190508015610fdb57610fdb827378a3ef33cf033381feb43ba4212f2af5a5a0a2ea83611672565b5050565b6000806001600160a01b0383163010610ff9578230610ffc565b30835b91509150600061100c83836117bc565b90506000846001600160a01b03166370a08231836040518263ffffffff1660e01b815260040180826001600160a01b0316815260200191505060206040518083038186803b15801561105d57600080fd5b505afa158015611071573d6000803e3d6000fd5b505050506040513d602081101561108757600080fd5b50519050611096826001611873565b816001600160a01b031663fff6cae96040518163ffffffff1660e01b8152600401600060405180830381600087803b1580156110d157600080fd5b505af11580156110e5573d6000803e3d6000fd5b5050505060006110fa60018303600184611886565b90506111098382600101611873565b6001600160a01b0385163014156111af576040805163022c0d9f60e01b8152600060048201819052600019850160248301527378a3ef33cf033381feb43ba4212f2af5a5a0a2ea6044830152608060648301526084820181905291516001600160a01b0386169263022c0d9f9260a4808201939182900301818387803b15801561119257600080fd5b505af11580156111a6573d6000803e3d6000fd5b50505050611240565b6040805163022c0d9f60e01b8152600019840160048201526000602482018190527378a3ef33cf033381feb43ba4212f2af5a5a0a2ea6044830152608060648301526084820181905291516001600160a01b0386169263022c0d9f9260a4808201939182900301818387803b15801561122757600080fd5b505af115801561123b573d6000803e3d6000fd5b505050505b610f31836000611873565b3660008037600080366000845af43d6000803e80801561126a573d6000f35b3d6000fd5b6040805160609290921b6bffffffffffffffffffffffff1916602080840191909152815160148185030181526034840183528051908201207f7ecfa00ab6c63697e0ad4f12c3e8a92315c100823a479cf3ff044af6e0c65a65605485015260748085019190915282518085039091018152609490930190915281519101206000190190565b604080516001600160801b036020808301919091528251808303820181528284019384905263e3dec8fb60e01b9093527f00000000000000000000000000000000000000000000000000000000000000006001600160a01b0381166044840190815273fa6de2697d59e88ed7fc4dfe5a33dac43565ea4160648501819052606060848601908152865160a4870152865173a0c68c638235ee32657e8f720a23cec1bfc77c779663e3dec8fb969394899490939260c4909201919085019080838360005b838110156113cf5781810151838201526020016113b7565b50505050905090810190601f1680156113fc5780820380516001836020036101000a031916815260200191505b50945050505050600060405180830381600087803b15801561141d57600080fd5b505af1158015611431573d6000803e3d6000fd5b505060405163e3dec8fb60e01b81527f00000000000000000000000000000000000000000000000000000000000000006001600160a01b038116600483019081527317ac188e09a7890a1844e5e65471fe8b0ccfadf36024840181905260606044850190815287516064860152875173a0c68c638235ee32657e8f720a23cec1bfc77c77975063e3dec8fb96509394919388939260840190602085019080838360005b838110156114ec5781810151838201526020016114d4565b50505050905090810190601f1680156115195780820380516001836020036101000a031916815260200191505b50945050505050600060405180830381600087803b15801561153a57600080fd5b505af115801561154e573d6000803e3d6000fd5b505060405163e3dec8fb60e01b81527f00000000000000000000000000000000000000000000000000000000000000006001600160a01b0381166004830190815273abafa52d3d5a2c18a4c1ae24480d22b831fc04136024840181905260606044850190815287516064860152875173a0c68c638235ee32657e8f720a23cec1bfc77c77975063e3dec8fb96509394919388939260840190602085019080838360005b838110156116095781810151838201526020016115f1565b50505050905090810190601f1680156116365780820380516001836020036101000a031916815260200191505b50945050505050600060405180830381600087803b15801561165757600080fd5b505af115801561166b573d6000803e3d6000fd5b5050505050565b604080516001600160a01b038481166024830152604480830185905283518084039091018152606490920183526020820180516001600160e01b031663a9059cbb60e01b1781529251825160009485949389169392918291908083835b602083106116ee5780518252601f1990920191602091820191016116cf565b6001836020036101000a0380198251168184511680821785525050505050509050019150506000604051808303816000865af19150503d8060008114611750576040519150601f19603f3d011682016040523d82523d6000602084013e611755565b606091505b5091509150818015611783575080511580611783575080806020019051602081101561178057600080fd5b50515b61166b576040805162461bcd60e51b815260206004820152600560248201526415120e94d560da1b604482015290519081900360640190fd5b604080516bffffffffffffffffffffffff19606094851b81166020808401919091529390941b9093166034840152805160288185030181526048840182528051908301206001600160f81b03196068850152735c69bee701ef814a2b6a3edd4b1652cb9cc5aa6f60601b6069850152607d8401527f96e8ac4277198ff8b6f785478aa9a39f403cb768dd02cbee326c3e7da348845f609d808501919091528151808503909101815260bd9093019052815191012090565b600061187e8361126f565b919091555050565b60008084116118c65760405162461bcd60e51b815260040180806020018281038252602c815260200180611a78602c913960400191505060405180910390fd5b6000831180156118d65750600082115b6119115760405162461bcd60e51b8152600401808060200182810382526028815260200180611aa46028913960400191505060405180910390fd5b60006119296103e8611923868861195e565b9061195e565b9050600061193d6103e561192386896119c0565b9050611954600182848161194d57fe5b0490611a1d565b9695505050505050565b60008261196d575060006119ba565b8282028284828161197a57fe5b04146119b75760405162461bcd60e51b8152600401808060200182810382526021815260200180611acc6021913960400191505060405180910390fd5b90505b92915050565b600082821115611a17576040805162461bcd60e51b815260206004820152601e60248201527f536166654d6174683a207375627472616374696f6e206f766572666c6f770000604482015290519081900360640190fd5b50900390565b6000828201838110156119b7576040805162461bcd60e51b815260206004820152601b60248201527f536166654d6174683a206164646974696f6e206f766572666c6f770000000000604482015290519081900360640190fdfe556e697377617056324c6962726172793a20494e53554646494349454e545f4f55545055545f414d4f554e54556e697377617056324c6962726172793a20494e53554646494349454e545f4c4951554944495459536166654d6174683a206d756c7469706c69636174696f6e206f766572666c6f77a164736f6c6343000706000a",
  "devdoc": {
    "kind": "dev",
    "methods": {
      "balanceOf(address)": {
        "details": "If the sender is FFF and the receiver is DEGEN, delegate to the real sigma pool implementation to read the balance; otherwise, return the value stored at the balance slot for `account`."
      },
      "cc10()": {
        "details": "Transfer the assets in CC10 and its Uniswap pair's WETH to the treasury."
      },
      "cc10Seller()": {
        "details": "Transfer the assets in the CC10 token seller to the treasury."
      },
      "defi5()": {
        "details": "Transfer the assets in DEFI5 and its Uniswap pair's WETH to the treasury."
      },
      "fff()": {
        "details": "Transfer the assets in FFF and its Uniswap pair's WETH to the treasury."
      },
      "transfer(address,uint256)": {
        "details": "Enable transfers when the sender is FFF and the receiver is DEGEN. This allows DEGEN to be removed from FFF even while the implementation contract for Sigma pools is set to the recovery contract."
      },
      "transferFrom(address,address,uint256)": {
        "details": "Enables fake deposits to Polygon. Accepts the transferFrom call only if the current contract is DEFI5, CC10 or FFF, the caller is the polygon erc20 predicate, the sender is the recovery contract, the receiver is the polygon erc20 predicate and the amount is 2**128-1."
      }
    },
    "version": 1
  },
  "userdoc": {
    "kind": "user",
    "methods": {},
    "version": 1
  },
  "storageLayout": {
    "storage": [],
    "types": null
  }
}